:10000000000004208D2F0200B52F0200B72F020040
:10001000B92F0200BB2F0200BD2F0200000000001C
:10002000000000000000000000000000251F02008A
:10003000C12F020000000000451F0200C52F020072
:10004000ED590200C72F0200BD2E0200B5280200A4
:10005000C72F0200C72F02006D240200C72F020025
:10006000C72F0200C72F0200C72F0200F927020086
:10007000C72F0200DD5B0200C72F0200C72F02005E
:10008000392D0200A11B0200C72F0200C72F02005A
:10009000C72F0200C72F0200C72F0200C72F020080
:1000A000C72F0200C72F0200C72F0200C72F020070
:1000B000C72F0200C72F0200000000000000000050
:1000C000C72F0200C72F0200C72F02008528020099
:1000D00009280200C72F02001D0A0000C72F0200D6
:1000E000C72F0200C72F0200C72F02000000000028
:1000F00000000000C72F020000000000E5280200F9
:1001000000000000000000000000000000000000EF
:1001100000000000000000000000000000000000DF
:1001200000000000000000000000000000000000CF
:1001300000000000000000000000000000000000BF
:1001400000000000000000000000000000000000AF
:10015000000000000000000000000000000000009F
:10016000000000000000000000000000000000008F
:10017000000000000000000000000000000000007F
:10018000000000000000000000000000000000006F
:10019000000000000000000000000000000000005F
:1001A000000000000000000000000000000000004F
:1001B000000000000000000000000000000000003F
:1001C000000000000000000000000000000000002F
:1001D000000000000000000000000000000000001F
:1001E000000000000000000000000000000000000F
:1001F00000000000000000000000000000000000FF
:1002000010B5054C237833B9044B13B10448AFF350
:1002100000800123237010BD98060020000000001C
:10022000D8A6020008B5034B1BB103490348AFF33E
:10023000008008BD000000009C060020D8A6020037
:10024000A3F5803A704700BF174B002B08BF134B34
:100250009D46FFF7F5FF00218B460F461348144AD1
:10026000121A11F0BBFD0E4B002B00D098470D4B1E
:10027000002B00D098470020002104000D000D48FD
:10028000002802D00C48AFF3008011F067FD200079
:10029000290000F013F811F04DFD00BF0000080028
:1002A000000000000000000000000420980600206C
:1002B000244C0120000000000000000008B500F000
:1002C00061FB21F0D5FE28B1852803D00121084625
:1002D00000F02AFB22F07AFD4FF08042D2F8183469
:1002E000DB03FBD500F0CAFB01F0B2F9014610B107
:1002F000012000F019FB01F065F8FEE7704770B5CA
:10030000044615460E0C8AB20146002000F040F962
:1003100032462146012000F03BF935B132462146F4
:100320000220BDE8704000F033B970BD7FB50125F3
:100330002A4603A91F208DF8025000F05BFC0446FA
:10034000002840F0CF80039E330C022B03D0032BF8
:1003500040F0C880054600210846012200F0E2F87E
:1003600001221146104600F0DDF825B102220121DC
:10037000104600F0D7F8012203A91A2000F03AFC39
:100380000446002840F0AE8003992A460520FFF776
:10039000B6FF012203A91C2000F02CFC0446002813
:1003A00040F0A08003992A460920FFF7A8FF012208
:1003B00003A9112000F01EFC0446002840F09280A2
:1003C000039A052100F010F90446002840F08A80C5
:1003D000012203A9132000F00DFC0446002840F080
:1003E0008180039A092100F0FFF80446002879D1A2
:1003F000002D45D040F20123ADF804303B4B3C4882
:100400001A88ADF808209B788DF80A300124022262
:1004100001A98DF8034008F0A1FC22460DF103016B
:10042000344808F09BFC032202A9334808F096FCEC
:10043000324933487C2208F091FCF6B23149324807
:100440007C2208F08BFC022E1AD1224603A914202C
:1004500000F0D0FB0446002844D1BDF80E302B48F4
:10046000ADF8063032460DF1060108F077FC039B2B
:100470002748ADF8063032460DF1060108F06EFC53
:10048000012203A91E2000F0B5FB044650BB039BCC
:1004900003F07F038DF806302BB11E4801220DF1C9
:1004A000060108F05BFC012203A9182000F0A2FB62
:1004B0000446B8B9039B7BB11B0C012202A9164864
:1004C0008DF8083008F04AFC039B14488DF808307A
:1004D000012202A908F042FC114801220DF102019B
:1004E00008F03CFC204604B070BD00BF567B020003
:1004F0007C7A0200907A0200AB7A020000000020B1
:10050000BC7A02007C000020CB7A0200DA7A02007A
:10051000F47A02000E7B0200187B02002A7B0200A4
:100520003C7B0200F0B58BB005AC8DF80620164A76
:100530008DF80710034602F110072646106851682F
:10054000254603C50832BA422C46F7D10F4C127823
:10055000616820682A7002AA03C2218911802BB128
:100560003033DBB28DF817308DF80B300DF1070109
:100570000122304608F0F2FB01220DF1060102A82B
:1005800008F0ECFB0BB0F0BD597B02006A7B020067
:10059000F0B589B0134B019203AA05460C4603F14E
:1005A000100C174618685968164603C60833634589
:1005B0003246F7D119889B783180B370019BA3F53F
:1005C0007A5330353034B3F57A7F8DF80F508DF88B
:1005D000134005D804220DEB0201384608F0BEFB9B
:1005E00009B0F0BD747B0200F0B5254B8DB003ACB3
:1005F00006468C4603F1200E2546186859682746A2
:1006000003C7083373453C46F7D119889B78BB7004
:10061000A2F10133B3F1FD3F39802CD8D3B2C2F33C
:100620000721994229D1C2F307438B4225D1B3EB6D
:10063000126F4FEA126120D10CF1300330360DF108
:10064000070260468DF80F608DF8133002F0F6FA5D
:10065000044668B99DF80720130443EA02231343B4
:1006600043EA026302A904222846029308F076FBBB
:1006700020460DB0F0BD0024FAE76FF00A04F7E75A
:10068000877B020048F21953984222DC48F2025359
:10069000984205DC002814BF6FF00400002070476A
:1006A000A0F505400338162810D8DFE800F00C222A
:1006B0000F0F0F0F0F0F0F0F0F0F0F2828282828CD
:1006C000250F282825006FF0110070476FF00400F7
:1006D000704748F25053984211D0A0F50540D4BF5E
:1006E00041386038032834BF6FF00A006FF004000F
:1006F00070476FF0050070476FF0100070476FF0A3
:100700000A00704708B5064B1A783AB901221A70E8
:1007100022F042FEBDE80840FFF7B4BF002008BD4C
:10072000E807002008B5054B187828B122F050FEE4
:10073000BDE80840FFF7A6BF08BD00BFE8070020DE
:1007400007B504210DEB010022F0B6FF019803B0BC
:100750005DF804FB10B588B007ACCDE90334002385
:10076000CDE901120792009305490346022205488C
:1007700022F0CAFD08B0BDE81040FFF783BF00BFFC
:10078000B0A00200B406002010B588B007ACCDE9D7
:1007900003340023CDE90112079200930549034673
:1007A0000222054822F0B0FD08B0BDE81040FFF776
:1007B00069BF00BFD4A00200B406002010B50446F3
:1007C00022F046FE2046BDE8104000F09FBC00002D
:1007D00037B505464C20019100F05AFC044660B143
:1007E000019A074922F01CFE20B103B0BDE8304059
:1007F000FFF748BF2C6003B030BD6FF01000FAE780
:100800001CA1020030B589B0CDE900239DF840500D
:100810000C9C06950F9DCDE904450D9D0A46CDE93A
:1008200002450D23012122F029FE09B0BDE8304028
:10083000FFF728BF30B587B00D9D0A9C04950C9D2D
:10084000CDE902450B9DCDE90045FFF7DBFF07B081
:1008500030BD30B589B0CDE900239DF840500C9CE7
:1008600006950F9DCDE904450D9D0A46CDE902454B
:100870000D23002122F002FE09B0BDE83040FFF751
:1008800001BF30B587B00D9D0A9C04950C9DCDE944
:1008900002450B9DCDE90045FFF7DBFF07B030BDFA
:1008A00070B505464FF4A4700C46164600F0F0FBF8
:1008B00078B1214600F59A7304F1100251F8044B07
:1008C00043F8044B9142F9D180F84461286000203C
:1008D00070BD6FF01000FBE700F018BC30B589B0B8
:1008E00007ADCDE90335CDE9011200230093064998
:1008F000079200F59A7390F8442122F005FDFFF766
:10090000C1FE09B030BD00BFF8A0020038B5054DEA
:10091000044645F001054FF47A40A847013CFAD15E
:1009200038BD00BFB07B0200144B2DE9F047DFF863
:1009300050A0197005460C464FF0A0480DB9BDE80F
:10094000F0872646002EF9D003279AF800004FF4CE
:10095000005922F003FA6420C8F80C95FFF7D6FF7F
:10096000C8F808956420FFF7D1FF013FEDD14FF49F
:100970007A70FFF7CBFF013EE4E700BFE9070020F4
:10098000D94601201F4B1B68082B36D11E4B1B6814
:10099000052B34D81D4AD35C002B0CBFFF215A21F4
:1009A0004FF01023D3F80832DBB28B4229D0184B1A
:1009B0000122C3F80425D3F80024002AFBD04FF00D
:1009C0001020D0F8082222F0FF020A43C0F80822C3
:1009D0000022C3F804250E4AD2F80034002BFBD0C5
:1009E000BFF34F8F0B490C4BCA6802F4E06213430C
:1009F000CB60BFF34F8F00BFFDE7FF21D0E75A2147
:100A0000CEE770473001001034010010B67B0200C1
:100A100000E0014000ED00E00400FA05044B9A6894
:100A2000F1EE103A136C23F09F031364704700BF7C
:100A300030EF00E007B5094D002428688DF8074025
:100A40004FF0FF320DF1070100F01EFC0028F4D139
:100A500025F03AFA0028FBD1EFE700BFEC070020B1
:100A600008B500F043F808BD034B186810B1012128
:100A700000F001BC704700BFEC07002037B51549F6
:100A8000154825F0C7F908B121F08CFA25F07AF95C
:100A900000F0D1FB114C2060D0B14FF4407000F059
:100AA000F7FA0F4D4FF440730622CDE9003228606B
:100AB00003460C4A0C48002100F002FC40B92868AB
:100AC00000F024FB206803B0BDE8304000F0C7BB55
:100AD00003B030BD40420F00610A0000EC07002067
:100AE000F0070020BC7B0200350A000000F03CB893
:100AF00000F056B8064AD2E900316FF07F401B186B
:100B00004FF0000040EB0101C2E90031704700BF27
:100B1000F807002008B50E4A0E490F4821F0B6FD2F
:100B200060B10E4B0E480F49C01AC0080004BDE862
:100B30000840022240F0010025F024BB064821F0C5
:100B4000E3FDBDE808400448012121F045BE00BF97
:100B5000C50C0000F67B0200FC000020DCA60200B1
:100B600014A70200C37B02000A4B0B4A1B68D2E9A0
:100B70000001D3F8043510B5084CC01841F100014C
:100B8000A0FB042304FB0133D00B40EA4340D90B04
:100B900010BD00BFFC000020F807002040420F00FD
:100BA0002DE97848104B1A680E46D2F80415D2F891
:100BB00004359942FBD00D4A0D49D2E90045E418AD
:100BC000A4FB01BC45F1000501FB05CC4FEADB327B
:100BD00042EA4C424FEADC33C0E900231EF05CFFDE
:100BE0003060BDE8788800BFFC000020F8070020D6
:100BF00040420F002DE9F8430646894617460AB3DE
:100C00007F2822D81318802B1FD800F0E9FA8046DD
:100C100000F0D2F8054648B100F0AAF8044628B121
:100C2000404600F0E2FA2046BDE8F8833A464946DD
:100C3000B0B21FF001F91DB100F086F80446EFE7ED
:100C40002C46EDE76FF00A04EDE76FF00804EAE7E1
:100C5000074930B50023142404FB03F5DAB26D5CB8
:100C6000854203D00133042BF6D11A46104630BD1D
:100C70000008002010B5094A002311465478844228
:100C800001D1147C34B90133042B02F11402F5D1E3
:100C9000002010BD142000FB0310FAE7000800201C
:100CA000074A00231046117C31B10133042B02F1B5
:100CB0001402F8D100207047142202FB0300704791
:100CC00000080020052813B504D102B0BDE810408B
:100CD000FFF710BF0190FFF7BBFF032802461CD8A7
:100CE000144C142000FB0244D4E901309847637C83
:100CF0000199114863B10368D3F80425E3681A44E5
:100D000022F07F42012302B0BDE8104021F022BD55
:100D100002B0BDE8104021F003BD084B0848094966
:100D2000C01AC008000440F0010002B0BDE8104045
:100D300025F028BA0008002004010020DCA60200EB
:100D400014A70200FC7B020038B5084D00F048FAF9
:100D50002B78044623B902201EF002FF01232B70DA
:100D6000204600F042FA002038BD00BF0C010020F0
:100D700038B50F4D00F034FA2B7804469BB14FF490
:100D8000A0610C4800F042F84FF4C87000F008FB76
:100D90004FF41061074800F039F84FF4FA7000F092
:100DA000FFFA00232B70204600F01FFA002038BD08
:100DB0000C0100201C010020014B1878704700BF77
:100DC0000C01002070B5084C064600252368B3428C
:100DD00003D163680BB1A06898470135062D04F173
:100DE0001004F3D170BD00BF500800201F2886BF3B
:100DF00000F01F00044B4FF0A04300F5E07053F8E3
:100E0000200000F00100704700030050D0E90032DC
:100E100003F01F03F0B543EA421369B91F2B86BFE5
:100E200003F01F031A4A4FF0A04203F5E0730221BA
:100E300042F823100020F0BD480754BFC1F3C0049E
:100E40000324C1F3002511F400660CBF002703271B
:100E50006A001F2B88BF03F01F0342EA050242EA23
:100E600084028CBF0A484FF0A04003F5E07442EAC8
:100E7000072240F824201EB101229A40C0F808251C
:100E80004A0542BF012202FA03F3C0F80C35D1E74C
:100E900000030050D0E9000300F01F0040EA4313B4
:100EA00089B11F2B8ABF094A4FF0A04203F01F03EC
:100EB000D2F81005D84010F001001DBF012300201A
:100EC0000B70087070476FF00A0070470003005005
:100ED00073B5D0E9005305F01F0506460C4645EAF8
:100EE000431521F093F978B114F4805313D13B4AA0
:100EF000190189588D4217D12846FFF777FF01283D
:100F000023D16FF00A000DE021F03AF90028EBD070
:100F10006FF0050006E0284621F048FA284621F047
:100F200067FA002002B070BD0133062BE0D12C48D7
:100F30002C4B32682C491B1ADB081B0443F00200BF
:100F400025F020F96FF01800ECE714F4F83F0AD10F
:100F50002448234B2549C01AC008000440F0010072
:100F600025F00CF9CDE704F4C033B3F5803F2CD065
:100F7000B3F5C03F04D0B3F5004F28D11C4B00E0BF
:100F80001C4B1A889B78ADF804208DF80630019B25
:100F9000ADF8003022074FEA13438DF8023044BF0A
:100FA00001238DF80130630748BF0323124A48BF6D
:100FB0008DF801306946284621F032F90028C1D168
:100FC0000121284621F0A8F9ABE70C4BD9E70548E9
:100FD000034B0B49C01AC0080004BFE750080020AB
:100FE000DCA6020014A702006F7C0200187C02003D
:100FF0000A7D0200077D0200C50D00000D7D020084
:10100000377C0200F8B5D0E9004304F01F0444EA3D
:1010100043142046FFF7EAFE01282DD0184D00208A
:101020002B4606017759BC4207D1AB199A600122C1
:10103000C3E900411A73002020E001300628F0D1F6
:101040000F4D00202E7B16B903EB0013EEE70130A5
:10105000062805F11005F5D10A4B0B480B49C01ABB
:10106000C008000440F0010025F088F8204621F077
:101070009DF96FF0180001E06FF00A00F8BD00BFA5
:1010800050080020DCA6020014A70200B47C020075
:1010900010B5044608B9002010BD083000F0A7F8CC
:1010A0000028F8D000230370044A054B44804360B5
:1010B00013681C1B14600830EEE700BF4C010020D1
:1010C000ADDEADDE414338B50C4602D100231846F3
:1010D00038BD01F1080000F08AF805460028F5D077
:1010E00000F1080322460021184610F077FE002286
:1010F0002A70044A6A60044A6C801168091B03461E
:101100001160E4E7ADDEADDE4C01002010B488B123
:101110000828A0F1080308D010F8080C06495C88DC
:1011200051F82020224441F820205DF8044B184655
:1011300000F05FB80346F8E74C01002070B50C469C
:1011400058B130F8066C10F8085CA0F10803A21B37
:101150003CB9FFF7DBFF002070BD0346064605469D
:10116000F5E7002A04DB0C4951F825108A42F2D831
:1011700004F10801184600F03EF80028EBD0074BB8
:101180004360054B4480341B53F82560057034449C
:1011900043F825400830DFE74C010020ADDEADDE2E
:1011A00070B50D46044608B9002070BD0A4E56F8C9
:1011B00021308342F8D3083000F019F80028F3D02A
:1011C000064B436056F8253044801C1B057046F8DA
:1011D00025400830E9E700BF4C010020ADDEADDE60
:1011E00008B520F0C9FC002008BD20F0CFBC20F0DD
:1011F000AFBD20F021BE70B50C46064628B9C1B17E
:10120000BDE87040084620F0A3BD91B1084620F02B
:101210009FFD054658B156F8042C083AA24228BF53
:101220002246314610F0CCFD304620F005FE28461F
:1012300070BD2546FBE738B50420FFF729FF0446BB
:1012400058B105220421002000F0C1F805462060B5
:1012500018B92046FFF75AFF2C46204638BD10B576
:10126000044638B1006800F0E3F82046BDE81040BD
:10127000FFF74CBF10BD07B50068019101A900F050
:10128000E9F803B05DF804FB006800F00BB900005A
:10129000034B0360034B0B6080231360704700BF58
:1012A0000C090020680B0020034B0360034B0B600C
:1012B00080231360704700BFB00800206809002039
:1012C0002DE9F04385B089469DF83470164698465E
:1012D000054620B90024204605B0BDE8F083002A69
:1012E000F8D0002BF6D0062FF4D86020FFF7D0FE00
:1012F00004460028EED00346002243F8042B0C9A43
:10130000C7F106070332CDE90183284600974B4613
:10131000920831461FF080FE054620600028DAD191
:101320002046FFF7F3FE2C46D5E710B504462068AB
:101330001FF0D6FE18B9012020F034F8F7E700209E
:1013400010BD10B50468FFF7E1FE20461FF07EFED9
:10135000002010BD08B51FF037FF044B0021584393
:101360004FF47A73B0FBF3F008BD00BF40420F00AA
:10137000012838BF012020F015B8000013B5074C34
:1013800023782BB9019021F0C7FD01230198237028
:1013900002B0BDE8104021F0E1BD00BF680D0020A3
:1013A00013B5074C23782BB9019021F0B5FD01232B
:1013B0000198237002B0BDE8104021F0C3BD00BF0A
:1013C000680D002008B51FF0BFFE002008BDF7B56E
:1013D00005465C200F461646FFF75AFE044670B1DC
:1013E0000023456580F858307DB906FB07F0FFF70C
:1013F0004FFE606530B92046FFF788FE0024204686
:1014000003B0F0BD012384F8583000230093626DCF
:10141000231D394630461FF0E5F920600028EED143
:1014200094F85830002BE6D0606DFFF76FFEE2E7CE
:1014300010B5044668B190F8583013B1406DFFF70D
:1014400065FE20681FF062FC2046BDE81040FFF7F3
:101450005DBE10BD1FB50446019100F04BF8019927
:101460000346C0B100232068039303AA1FF08CFA3F
:10147000039B012B08D10A4B4FF080525A6040BFAA
:10148000BFF34F8FBFF36F8F00280CBF6FF00B00BF
:10149000002004B010BD024620681FF0DFF9F3E71A
:1014A00000ED00E030B5144685B00546F8B1019175
:1014B000E9B100F01FF8019960B100232868039397
:1014C00003AA1FF0C9FB002814BF00206FF00B0017
:1014D00005B030BD631C05D024B14FF47A735C4372
:1014E000B4FBF3F4286822461FF0A6FAEBE76FF08E
:1014F0000A00EDE7EFF30580003818BF01207047C0
:101500002DE9F04188B000200390414CFFF702FB29
:1015100013F06EFE3F4BE41AE408240480B93E4801
:1015200007F0D4FC50B901F055FA28B903A800F02F
:10153000C5F938B100F085FE07F0EAFC13F032FE81
:1015400036491CE0DFF8048144F0020702260398C4
:1015500004A900F0C8F9054630B132464146384684
:1015600024F010FE013EF2D2039800F0B5F900F02D
:1015700068FE07F0CDFC13F015FE3DB1284944F09C
:10158000010024F0FBFD08B0BDE8F081069B254A70
:101590002548254E254D802111F092F8049B244AC0
:1015A00000938021059B234811F08AF8079B224A6B
:1015B0002248802111F084F8079B0193049B204A64
:1015C00000938021059B1F4844F0030411F078F834
:1015D0001D49204624F0D2FD06F1800732462946F7
:1015E000204624F0CFFD3A462946204624F0CAFD85
:1015F00029462046114A24F0C5FD2046114A2946B5
:1016000024F0C0FD4FF47A70FFF7B2FEE6E700BFAA
:1016100014A70200DCA60200F8000020C67D02002C
:101620002E7D0200497D0200690D0020C37D02006D
:10163000637D0200E90D00207F7D0200690E00201D
:10164000977D0200E90E0020B67D0200107D0200A9
:1016500013B54FF48060FFF71BFD164C206060B996
:10166000154B16481649C01AC008000440F0010086
:1016700024F084FD472002B010BD4FF480630322A4
:10168000CDE90032002103460E4A0F48FFF718FE4D
:1016900070B9094B09480D49C01AC008000440F050
:1016A000010024F06BFD2068FFF730FD3820E2E7F1
:1016B0000020E0E76C0F0020DCA6020014A7020067
:1016C000E07D0200157E020001150000207E020070
:1016D0002DE9F041E2B004460E4617460021F02203
:1016E00026A810F07BFB602200210EA810F076FBEC
:1016F000A5681C2235F8048B0021684610F06EFBAB
:101700000023A8F104080394ADF81C3107AC4893FA
:101710000E2240F20D1326A96846CDE90155CDF8F9
:1017200010804694ADF8243100F0DBFCA0B904230E
:10173000ADF87C3040F209132090ADF88430ADF85C
:101740008C0024900D2305220EA920461E97229678
:10175000ADF8943000F0C5FC62B0BDE8F08110B582
:101760000C4600F1D8010120FFF7ACFC58B104236E
:1017700003764FF40873C36200F1D803C36000F12D
:1017800018030361846310BDFFF7C0BC014B1860F0
:1017900000207047700F0020024A0023436413604A
:1017A000704700BF700F0020034610B45A6C084603
:1017B0003AB1D4682CB1986C002223465DF8044BF2
:1017C00018475DF8044B00F046BC436C23B19B689E
:1017D00013B1806C002118477047034610B45A6C4F
:1017E00008463AB114682CB1986C012223465DF882
:1017F000044B18475DF8044B00F02DBC084B10B4A7
:101800001C68636C3BB11B682BB101460022A06CC5
:101810005DF8044B18475DF8044B00F01CBC00BF9A
:10182000700F0020C36B0BB1006C184770470000AD
:10183000F8B50E4B1B68DB6C05460C4683B1C36CD8
:101840008E6818461C22002136F8047B10F0C6FA78
:10185000EB6C043FC0E901660761DC600020F8BD65
:10186000084600F0F8FB6FF00A00F8E7700F002060
:1018700070B50139092988B0164617D80C2404FB25
:101880000104636DABB16A4601A93046FFF720FF42
:10189000054688B9636D0099206D01AA984716B175
:1018A000304600F0D8FB284608B070BD6FF0160532
:1018B000F5E76FF00605F2E70025F0E710B50446FE
:1018C00005F022FB28B900F0A5FB10B9014B1B68FD
:1018D000236010BD700F002008B500F0A1FBBDE82B
:1018E000084005F01CBB1FB50C4668B1694600F006
:1018F0008DF838B9DDE90023C4E90023029BA36019
:10190000039BE36004B010BD6FF00800FAE700200D
:1019100070477047024B18600620998101F01ABB8E
:10192000800F00202DE9F0410B4688B00546144693
:10193000002951D02B4E92F800E03768E7B12A4ACF
:101940001268824218D1294A1278724512D8227040
:101950003946184610F034FA24783846FFF7D6FB9B
:1019600000218C42316019DB284608B0BDE8F04107
:10197000FFF7D0BF1E4CF0E71E4A6F4602F1200869
:101980003E4610685168BC46ACE803000832424548
:101990006746F6D1BEF11F0F0DD8154CC4F17F4438
:1019A00004F57F0404F56F44FA34102C17D8124B59
:1019B00033F91410D8E7202222702ABA344607924D
:1019C00008AE224603CAB24218605960144603F1B9
:1019D0000803F6D10021C7E76FF00A01C4E76FF0F2
:1019E000A201C1E7780F0020740F00207C0F0020B7
:1019F000F8EFFFFF427E0200627E0200024BB3F965
:101A00000C20196804F06CBC800F002038B5C56844
:101A10000C46D5F8D8004FF0FF3113F0B1FC2B6E17
:101A2000D3F8A0304BB12146284698470446D5F854
:101A3000D80013F0C9FC204638BD6FF01104F6E75A
:101A4000037D033B022B0BD8C368D3F8A8303BB10E
:101A5000D0F8CC21934214BF00206FF012007047E1
:101A600000207047C368D0F89410586905F0EBB9AE
:101A7000037D033B022B01D90AF071BD00207047A2
:101A80000AF06ABDF8B5C46803230E4605462376FE
:101A900008F033FB05F59073236473682362B36821
:101AA000E0636362284609F0B4F93146284604F140
:101AB00018070AF04EFD08B1002323763846F8BD1A
:101AC0000AF040BD037D033B022B07D8C368D3F85F
:101AD000A8301BB1D0F8CC21934201D00AF025BD2B
:101AE00070470AF0B1B809F029BA09F052BA08B53E
:101AF000C068B83009F0F0FA002008BD08F0A3BEB5
:101B000013460A46194608F061BE08F0DBBE002302
:101B10001A4607F0FABF2DE9F3410C46D0E90E56FC
:101B200007464FF0021801AB042201212046CDF8F0
:101B3000048007F0EAFF10B16FF00E0027E201AB5E
:101B4000042202212046CDF8048007F0DEFF0028A1
:101B5000F2D1012201AB032120468DF8042007F0C9
:101B6000D4FF0028E8D104212046FFF7D0FF002849
:101B7000E2D107212046FFF7CAFF0028DCD1082167
:101B80002046FFF7C4FF0028D6D109212046FFF7E1
:101B9000BEFF0028D0D10A212046FFF7B8FF002859
:101BA000CAD10B212046FFF7B2FF0028C4D114216F
:101BB0002046FFF7ACFF0028BED115212046FFF7D5
:101BC000A6FF0028B8D118212046FFF7A0FF002863
:101BD000B2D117212046FFF79AFF0028ACD1192176
:101BE0002046FFF794FF0028A6D11A212046FFF7D0
:101BF0008EFF0028A0D11B212046FFF788FF002878
:101C00009AD11C212046FFF782FF002894D113218E
:101C10002046FFF77CFF00288ED108230193042281
:101C200001AB2221204607F070FF002884D1242137
:101C30002046FFF76CFF00287FF47EAF2621204668
:101C4000FFF765FF00287FF477AF27212046FFF7D5
:101C50005EFF00287FF470AF28212046FFF757FF72
:101C600000287FF469AF3B6C1B691A7803EB820391
:101C70002B215B68ADF80430022201AB204607F04F
:101C800044FF00287FF458AF024606F00C031343CC
:101C90000DD02D212046FFF73AFF00287FF44CAFEE
:101CA0002E212046FFF733FF00287FF445AF05F0D3
:101CB000A0020023134340F06D8105F4A0720023BD
:101CC000134306D030212046FFF721FF00287FF480
:101CD00033AF05F004020023134306D03121204620
:101CE000FFF715FF00287FF427AF05F00802002357
:101CF000134306D032212046FFF709FF00287FF466
:101D00001BAF05F400220023134306D034212046E4
:101D1000FFF7FDFE00287FF40FAF05F4001200234B
:101D2000134306D033212046FFF7F1FE00287FF44D
:101D300003AF05F000520023134306D0352120469F
:101D4000FFF7E5FE00287FF4F7AE05F080420023A0
:101D5000134306D036212046FFF7D9FE00287FF432
:101D6000EBAE05F000420023134306D03721204696
:101D7000FFF7CDFE00287FF4DFAE002206F001035E
:101D8000134306D038212046FFF7C1FE00287FF418
:101D9000D3AE002206F00203134340F003813A2140
:101DA0002046FFF7B4FE00287FF4C6AE024606F0D8
:101DB0000403134340F0FE80002206F0080313439F
:101DC00006D03C212046FFF7A2FE00287FF4B4AEE7
:101DD000002206F01003134306D03D212046FFF7F2
:101DE00096FE00287FF4A8AE002206F020031343DD
:101DF00006D03E212046FFF78AFE00287FF49CAEE5
:101E000005F020020023134306D03F212046FFF7B0
:101E10007EFE00287FF490AE05F0400200231343BD
:101E200006D040212046FFF772FE00287FF484AEE2
:101E300005F080020023134306D041212046FFF71E
:101E400066FE00287FF478AE05F480720023134309
:101E500006D042212046FFF75AFE00287FF46CAEE0
:101E600005F480620023134306D043212046FFF788
:101E70004EFE00287FF460AE05F400620023134399
:101E800040F0A0807B6A0193042201AB46212046EA
:101E900007F03BFE00287FF44FAEBB6A019304229B
:101EA00001AB4721204607F030FE00287FF444AE06
:101EB00008F000FAC10700F18D8008F0FBF9020775
:101EC00000F1908008F0F6F9C30600F19380022338
:101ED0008DF80430012201AB4E21204607F015FE9B
:101EE00000287FF429AE4F212046FFF710FE00287E
:101EF0007FF422AE50212046FFF709FE00287FF430
:101F00001BAE51212046FFF702FE00287FF414AEDD
:101F100052212046FFF7FBFD00287FF40DAE532130
:101F20002046FFF7F4FD00287FF406AE542120463A
:101F3000FFF7EDFD00287FF4FFAD024606F04003F9
:101F400013435FD1002206F08003134306D05621CD
:101F50002046FFF7DCFD00287FF4EEAD002206F4FA
:101F60008073134306D057212046FFF7D0FD002889
:101F70007FF4E2AD002206F40073134306D058212B
:101F80002046FFF7C4FD00287FF4D6AD002002B044
:101F9000BDE8F0812F212046FFF7B9FD00283FF46E
:101FA0008CAEC9E539212046FFF7B1FD00283FF48A
:101FB000F6AEC1E53B212046FFF7A9FD00283FF41E
:101FC000FBAEB9E544212046FFF7A1FD00283FF410
:101FD00059AFB1E548212046FFF799FD00283FF4AD
:101FE0006CAFA9E54B212046FFF791FD00283FF497
:101FF00069AFA1E54C212046FFF789FD00283FF499
:1020000066AF99E555212046FFF781FD002899D05C
:1020100092E50000014805F01DBC00BF58010020FA
:10202000014805F05FBC00BF5801002010B5044610
:102030003030FFF7B5F850B1002300F13002C0E9AD
:102040000033C0E9022314448261C461038210BDDD
:102050000021FFF7EBBFFFF759B8C3688B4288BF79
:10206000C1607047D0E902231944C160D01870479D
:1020700038B5D0E902541319C36028190FF0A0FE37
:10208000002038BDD0E902230A44591A8260C16099
:1020900070470368C1E900305960016070474368C8
:1020A00008604B6019604160704782B00346006869
:1020B0000190019A934217BFD0E90023002053609A
:1020C0001A601CBF0023C0E9003302B0704710B58E
:1020D00004462046FFF7E9FF00B910BDFFF716F8E8
:1020E000F7E72DE9F04F85B00369019343688360FA
:1020F00007460D4690464FF00009019B002B06DC79
:1021000000230D35984580F29180002007E001A959
:1021100038460CF049FD044620B96FF00A0005B0BE
:10212000BDE8F08F019A032AF7DD0388032BF4D969
:102130009A42F2DB468826F44046B0451EDB330166
:1021400005EB0616327BCAB1717B013A41F0020100
:1021500071730C2A12D8DFE802F0070B181C262A2C
:102160002124262A36405200EB5801221A7005E03D
:10217000EA580379003B18BF0123137001AA2146D6
:1021800038460CF01AFDB860B7E7EB5890F9042018
:10219000ECE7B0F90420EB581A80EFE7EB5802792E
:1021A000E4E78288F7E7EB5842681A60E6E7024600
:1021B000EE5852F8040F516802AB03C3DDE9022365
:1021C000C6E90023DAE70288B188043A8A42A4DC2F
:1021D000011DE85810F0C1FAD0E7B0F800A0B288AD
:1021E000AAF1040A924598DC011D5246E8580FF006
:1021F000E7FDB368002BC1D0C3F800A0BEE7EB58E1
:102200009F428AD082461C22184600213AF804BB1D
:102210000FF0E4FD2388FA68C260ABF1040B043BC5
:10222000C0E901AAC0E904B9B380A7E71A01AA5C12
:1022300002F00302012A01D0013363E76FF01400BA
:102240006DE708B500F01CFFBDE8084013F0B4B915
:1022500070B50E680446F0070D4603D5B4F8520178
:102260001DF0CEFCB10702D520461DF0DDFC720743
:1022700003D5B4F854011DF0AFFC330705D5B4F80D
:102280005811B4F856011DF009FD2B6823F00F0317
:102290002B6070BD10B5FF210446032013F0B1F888
:1022A0002046BDE8104003F0BAB87047D0F874314A
:1022B0004BB190F87A3133B1037A092B08BF013062
:1022C00090F8780170471846704713B5044600F53A
:1022D000BD7007F033F80DF1070007F035F89DF8F1
:1022E00007204FF47A735343C4F8743104F5BC717A
:1022F000002007F02FF804F27911012007F02AF8E6
:1023000002B010BD90F8963010B5044653B9FF21C5
:10231000032013F076F8204602F09AFF0123A0660E
:1023200084F8963010BD00002DE9F041044688463F
:1023300017461E46FFF7BAFF054648B30B6893B928
:10234000D4F874011449154A0023A0FB010125F0BB
:1023500005FA012330443860C8F800302046FFF702
:10236000D1FF002514E010680B4A861B0B480023A0
:1023700086FB000125F0F2F900280146EEDDD4F8D5
:1023800074018842EAD2091AE8D0204603F081F8A5
:102390002846BDE8F08100BF8009EE0040420F00F2
:1023A00090F8963010B5044653B1FF21032013F086
:1023B00029F8204602F04CFF0023E06684F89630AE
:1023C00010BD90F8983013B1002380F89830704712
:1023D00000207047982881BFC0EB801300EB83007A
:1023E0006623B0FBF3F086BF7938C0B20120704796
:1023F00013B5B0F830410DF106001DF0FDFCBDF93C
:102400000600C0EBC010400090FBF4F0002805DD92
:10241000FD2805DC0130C0B202B010BD0120FBE791
:10242000FF20F9E700230022C0E92C230023C0E9A4
:102430002E33C0E93033704770472DE9F3410C1E4D
:10244000054610DA00230DF107008DF807301DF066
:10245000A1FD9DF80730DB0744BFEB6A43F008039A
:10246000044648BFEB62DCB12046FFF7F1FDA862ED
:10247000D8B1002640F6FF78A71B4745A8BF4746BE
:102480003946A86AFFF7EEFDB2B2B9B206F6FF769A
:102490001DF050FCB442EFDC002002B0BDE8F0813A
:1024A000EB6A43F00203EB62F6E76FF01000F4E72B
:1024B0000B787D2B58D006D8102B0BD0402B09D091
:1024C0006FF00A007047FA2B14BF6FF00A006FF02C
:1024D000110070474B88602B46D012D8182B43D080
:1024E00001D8102BF0E7302B3ED0402B01D0202B11
:1024F000E6D10B79042BE3D8DFE803F01636163665
:102500003600B3F5806FF4D008D8B3F5007F2BD038
:10251000D6D8802BEDD0B3F5807FE9E7B3F5006F17
:1025200022D0B3F5805FE3E74B79362B18D81A2B0E
:1025300009D8062B16D0072B16D0002B14BF6FF02E
:102540000A00002070471B3B0122DBB202FA03F3B2
:10255000074A13420CBF6FF00A006FF0110070477A
:102560006C2BB1E7002070476FF01100704700BF7F
:1025700011000008C0F8A02080F8A4107047B0F83F
:102580003031B3F5807F16D008D8402B15D0802B82
:1025900015D0202B15D06FF00A007047B3F5806F6F
:1025A00011D0B3F5006F10D0B3F5007FF3D13F2306
:1025B0004375002070471F23FAE70723F8E70F232E
:1025C000F6E70323F4E77F23F2E7FF23F0E710B5F4
:1025D0000446002094F8943084F87101012B06D948
:1025E0001DF06CFA2046BDE8104000F083BBD4F823
:1025F000F83013B1BDE81040184710BD30B5416C3C
:102600000B7F0C7B4D8B013BDBB2032B9ABF224A25
:10261000D2560822182C05EB020334D8082C8CBFA4
:102620004FF4FE724FF4F8725A435211182CC260E4
:102630002CD8082C8CBF4FF4FE724FF4F872521154
:102640004260182C4FEAC202826022D8082C8CBF4C
:102650004FF4FE734FF4F873CA7A013A022A9ABF14
:102660000E488056082003FB00F202F5FF531F338B
:10267000B5FBF0F5B3FBF2F32B440233C1F868214C
:10268000C1F86C3130BD4FF4B672CDE74FF4B6727D
:10269000D5E74FF4B673DFE7D37E0200D07E0200A9
:1026A000F0B546791B2E9E4640D00CD8062E35D06C
:1026B000072E41D0002E49D101244FF4007002258D
:1026C0004FF4007708E01F2E3CD0362E3ED1012477
:1026D000022608203546102741B191F822C0098C06
:1026E000634659431CBF61440131490213356F43AE
:1026F0004FEACE033CB14FF4A57503F2491494FBA5
:10270000F5F430256C431C443444394400FB041078
:102710000028B8BF1F3002EB6010F0BD00787D28A4
:102720004FF0010417D000264020C8E702260124FC
:10273000102035462027CFE70626002440203546C6
:102740000746C9E7002406261020C3E700242646D2
:1027500001200225F4E70226402035468027BBE70A
:102760002DE9F043457906781B2D99465AD00CD8AF
:10277000062D4CD0072D5DD0002D67D101274FF4D9
:10278000007E02244FF400780AE01F2D59D0362D28
:102790005CD1022501274FF0080E2C464FF010089F
:1027A00049B191F822C0098C634659431CBF8C443F
:1027B0000CF101014902A9EB0202C1EB42111334F1
:1027C00008FB141494FBFEF4641B6FB14FF4BD734B
:1027D00094FBF3F203FB1243302B4FF4A57404FB7C
:1027E00002F4C4BF303BE418002CB8BF07347D2E80
:1027F0004FEAE40436D033D8102E3AD0402E14BF1E
:1028000000207F20A042A8BF2046BDE8F0837D2E97
:102810004FF0010720D102254FF0400E2C464FF01B
:102820008008BDE7022501274FF0100E2C464FF01F
:102830002008B5E7002706254FF0400E2C46F0464D
:10284000AEE7002706254FF0100EF7E700273D46BC
:102850004FF0010E0224F2E700254FF0400E90E702
:10286000FA2E08D1C379022B05D8044A32F9130095
:10287000C8E77F20C6E70020C4E700BFD87E02007B
:102880002DE9F74F0D46D0F8D8910446904602F056
:10289000F3FC032D06460F4647D848460128A8BF3B
:1028A000012004EB001CDCE964310191D4F8D01163
:1028B000012D2A46A8BF0122B3EB010ED4F8D41192
:1028C000019B63EB01011EEB060347EB0101CCE921
:1028D000643190421FBF04EB0213D3F898210132F8
:1028E000C3F89821EDB1022DD4F8D8913FD0032D33
:1028F0003AD0B9F1030F1BD1D4F8DC0104EB091372
:10290000D3E964AB1AEB000A4BF1000BC3E964ABEB
:102910004D451FBF04EB0512D2F898310133C2F8C0
:102920009831C4E97467C4F8D85103B0BDE8F08F9A
:10293000B9F1020F16D1B8F1000F11D1D4E9160385
:102940009C22301A67EB0303A0FB020102FB031178
:102950000A22002324F0B2FED4F8E021801ACDE749
:102960004046F9E70020C9E7C4F8DC81D0E7B8F1B8
:10297000000F10D1D4E916039C22301A67EB030331
:10298000A0FB020102FB03110A22002324F096FEA1
:10299000C4F8E001BCE74046FAE770B590F89460EF
:1029A000012E054614D0012380F8943002F030FD4A
:1029B000044650B9014602462846FFF761FFFF2151
:1029C000032012F01FFD204670BD85F89460FAE7E1
:1029D0000024F8E72DE9F04188B000238DF8163087
:1029E00012F0E8FD0546002840F0D3806B4C8DF8CE
:1029F0001B002F23A4F8583140F20263E3610DF16C
:102A00001B0303930DF11A0302930DF119030193B4
:102A100006AB84F84801A4F84A01A4F84C01C4F8B4
:102A20000C014026009303274FF002080DF11E030E
:102A30000DF1170207A904F1180084F84F71A4F8EA
:102A400056812676668302F08FFD0546002840F009
:102A5000A080BDF81C30A4F809309DF81730A3738E
:102A6000BDF81E3063829DF81830E3739DF819306D
:102A700063749DF81A3023749DF81B30E3720923A8
:102A8000237240F60913A3814FF4E063A382444B01
:102A900084F83201C4E93F302E2384F8653140F2D6
:102AA000FF13A4F866313F4BC4F8CC303E4BC4F85A
:102AB000D0303E4BC4F8D4303D4BC4F8C8303D4B09
:102AC000C4F8F830A07584F8710184F8F701FF218B
:102AD000A4F8306184F80481C4E9270084F8A400D4
:102AE000384612F08EFC204602F044FE05460028CF
:102AF0004FD12046FFF7E9FB04F20E2012F0FAFB5B
:102B00000546002845D107A806F0B4FC8DF81E50F4
:102B10001DF0D0F984F865010DF11E0006F072FC7D
:102B20009DF81E30FF2B04BF94F865318DF81E30E0
:102B30009DF81E001DF0AAF90DF1160006F02AFC02
:102B400001269DF816001DF053FAC4F8D861C4F8A8
:102B5000A86102F091FB0025C4E974010022002362
:102B60000E4884F8F461C4E97955C4E97755C4E99D
:102B70006023FFF712FF10B9062384F8903084F821
:102B80000A5284F80C52054884F8725100F0ECF9AE
:102B90000546284608B0BDE8F08100BF900F002030
:102BA00080D0A3E4652C0000192D0000A12C0000AA
:102BB000292D0000412D000038B5002204460121D6
:102BC00000F17005FFF75CFE062384F89430204680
:102BD00002F077FB236F1BB129462046FFF738FB35
:102BE0002846BDE8384000F0B3B813B504462E308F
:102BF00006F0F8FB0DF1060006F0FCFBBDF8063010
:102C00005B4223860020062384F82C3002B010BDDE
:102C100010B50446084602F07FFC10B9012384F881
:102C2000713110BD10B5044690F8710128B1002033
:102C300002F072FC08B984F8710110BD02F043BEC5
:102C400010B50446FFF7EEFF94F8A430022B06D12E
:102C5000204600220321FFF78DFC012010BD00203B
:102C6000FCE7000010B5044602F0C2FDE3880387CC
:102C7000237ADB0742BFC36A43F00803C362002321
:102C800080F83030FFF7DCFF30B1044BBDE8104076
:102C900018680321FEF7EFBA10BD00BFA011002095
:102CA00038B5054602F0A4FD0446FFF7C9FFF0B1B0
:102CB0002B6813F4081F09D0012384F830300C4B23
:102CC00002211868BDE83840FEF7D5BA580101D591
:102CD0000523F2E7D90401D50723EEE79A0001D5D1
:102CE0000423EAE71B044CBF02230623E5E738BDB3
:102CF000A011002010B50446FFF7A2FF40B1054B1C
:102D0000012184F830101868BDE81040FEF7B3BA0E
:102D100010BD00BFA011002008B502F069FDBDE89C
:102D20000840FFF7E7BF000008B502F061FD034B64
:102D300000211868BDE80840FEF79DBAA0110020E8
:102D4000024B05211868FEF796BA00BFA0110020BB
:102D500038B5C4694CB1064D0022C2612868A0474D
:102D6000041E02DA286803F08EFA204638BD00BF40
:102D7000A41100202DE9F041002386B00022CDE906
:102D80000423714E714F00230393FF238DF8073006
:102D90003546336838685C6C4FF0FF3202A9FEF7A5
:102DA00073FA0028F5D1029B062BF2D8DFE803F076
:102DB000042B4B65C5A8A4002046FFF777FA18B18D
:102DC000FEF7C8FAC4E96001D4F8E48100220121C9
:102DD0002046FFF755FDB8F1000F08D0204602F05D
:102DE00037FA022100EB08022046FFF749FD0022D6
:102DF00011462046FFF7BEFB012007F044F8286883
:102E000003F026FAC5E72046FFF750FA18B1FEF79F
:102E1000A1FAC4E96001D4F8E811D4F8E0812046B1
:102E200002F07CFA012100EB08022046FFF728FDA2
:102E300001212046FFF700FB022007F024F8286854
:102E400003F0CDF9A5E72046FFF730FA18B1FEF7F9
:102E500081FAC4E96001002220460121FFF710FD3C
:102E600001212046FFF7E8FA022007F00CF894F859
:102E70003010286803F0CEF98BE72046FFF716FAEA
:102E800018B1FEF767FAC4E960010DF1070303AA60
:102E900004A9204602F0FFFA608658BBDDE904234E
:102EA000039961639DF8071084F84210C4E9082370
:102EB000204602F0F4F92A68238FD268804604F590
:102EC000887104F11800FFF7EBFB00EB08022046C5
:102ED0000121FFF7D5FC218F2046FFF7AEFA002134
:102EE0002046FFF7A9FA022006F0CDFF286803F07C
:102EF0005BF94EE70022EAE72868FEF77FFD48E726
:102F00002B685C6C94F89430012B04F1700803D0AA
:102F10004046FFF71DFF3CE794F8913013B120467F
:102F2000FFF7F0F994F89030062BF1D92046FFF71F
:102F3000B1F900283FF42DAFEAE7054B1868FEF71A
:102F400000FA06B0BDE8F081A4110020A011002015
:102F5000A8110020024B01461868FEF78CB900BF8B
:102F6000A0110020000000007FB500233C49ADF80F
:102F70000E300546042003F05FFE044620B96FF0D2
:102F80001004204604B070BD4564FFF737FB236C86
:102F900071225A60284602F035FC002850D02AA33E
:102FA000D3E90023C4E90E230DF10E0006F0C0F9A9
:102FB000236C1A69BDF80E30DB4303F408735361C8
:102FC0004FF48051274B23600D22C4E9041247F6C9
:102FD000E012C4E906232046FFF707FE236C1CA17C
:102FE000D1E900011B69C3E906012A7A5A7004225B
:102FF0001A702B7B1C4D236220462C6003F072FE5E
:103000000446C8B9FEF717F9184E194A30604FF454
:10301000006300931748184B01942146FEF750F9BE
:10302000164B18600028ACD13068FEF718F92868F4
:1030300003F0A2FE6FF01004286803F02DFEA0E755
:1030400005A3D3E90023ADE7346CA8B54403000021
:1030500057EB1CE4D62C55D6346CA8B50400000000
:10306000907F02008009EE00A4110020A011002032
:10307000DE7E0200752D0000AC110020A81100209A
:1030800038B50F4C2368D3B15B6C0E4DBFF35B8F2B
:10309000042193F87231BFF35B8F2868FEF7EBF8D9
:1030A000094B1868FEF741F92868FEF7D8F8206840
:1030B00003F062FE2068BDE8384003F0EDBD38BD86
:1030C000A4110020A0110020A81100201F2819D051
:1030D0000ED8072819D006D8012818D0032814BF05
:1030E0000020202070470F2814BF00208020704748
:1030F0007F280ED0FF280FD03F2814BF00204FF4A8
:10310000007070474FF48070704740207047102067
:1031100070474FF4806070474FF4006070470000C4
:10312000402803D00AD8102818BF0020042A9ABFCC
:10313000074B9B5C00231944484370477D2804D00B
:10314000FA2814BF00205120F0E75120EEE700BF1D
:10315000867F02006FF011007047000002794188FD
:10316000013AD2B2032A9CBF094B9B56027888BF12
:103170000823102A0B4408D0402A14BF4FF4B6701D
:103180004FF4FE705843401170474FF4F870F9E760
:103190008B7F020030B50398101A049A63EB020388
:1031A000002403F0800503F0FF0154EA050318BF73
:1031B00061F0FF0130BD0B681BBAC3604B681BBADE
:1031C00083608B681BBA4360CB681BBA036070478F
:1031D00000207047406C02F067BB07B50DF1070097
:1031E00006F0CCFA9DF8070003B05DF804FB13B5B8
:1031F00001A80C4602F002FB50B9019A6423D1B237
:1032000012125943534303EB112303F30F0323809B
:1032100002B010BD2DE9F84F446C0D46002960D076
:10322000D4F8D811012903DC00222046FFF728FB3F
:10323000D4F8B001DFF8B480D4F8B4312A4AA0FB46
:10324000080108FB0311002324F088FA0646C7177B
:10325000D4E97003A0FB080108FB0311224A0023F4
:1032600024F07CFA321847EBE07380464FEAE079AD
:10327000D4E96810B1EB020A60EB030B4FF47A72E9
:10328000D4E96401002324F069FAD4F89831A860E5
:10329000EB604FF47A7200235046594624F05EFAF0
:1032A000D4F8A83128616B614FF47A72002330465C
:1032B000394624F053FAD4F8B831A861EB614FF4E1
:1032C0007A7200234046494624F048FAD4F8C831BF
:1032D0006B6200220023C5E90A2328620020BDE8B2
:1032E000F88F6FF00A00FAE78009EE0040420F0005
:1032F00070B5466C054605F0B3FD0446A8B93046E6
:10330000FEF7E3FF01213046FEF7CFFF2B6C1B6970
:103310004FF408725A612846FFF767FC96F865017A
:103320001CF0B4FD20461CF063FE204670BD08462C
:10333000114605F0A3BC084611461A4605F068BDC3
:10334000F7B506460C461046776C1A46002971D030
:103350000146204605F002FD0546A0B93748214642
:103360000FF0F1F990B90DF1060006F04BF89DF859
:103370000630FF2B04BF97F865318DF806309DF8B5
:1033800006001CF083FD284603B0F0BD2C480A223D
:1033900021460FF0F2F928B129480A22211D0FF029
:1033A000ECF918B93846FEF790FFECE725482146BE
:1033B0000FF0C9F978B9336C0DF106001C6905F0FE
:1033C000B7FFBDF80630DB4303F408736361304692
:1033D00003F0B0FDD7E71C48132221460FF0CDF9CA
:1033E00018B93046FFF701FCCDE7184821460FF029
:1033F000AAF940B90DF1060005F0CCFF9DF80600D2
:103400001CF0F6FDBFE71248092221460FF0B5F97E
:1034100018B9012387F8F431B5E70E4821460FF0BB
:1034200092F90028AFD107F5C47005F0ADFF6FF039
:103430001805A8E76FF00A05A5E700BF0E7B02009C
:10344000E87E0200F37E0200077F02001B7F02007D
:10345000A2870200317F020005F06CBC05F05ABC67
:1034600008B5436C0029B3F8562114BF0020022090
:10347000824209D093F89420A3F85601042A05D873
:103480001A6F42F008021A67002008BDB3F85811FD
:103490001CF004FCF8E737B5D307406C44BF4B89F8
:1034A000A0F85231950748BFD1E90045019248BFC5
:1034B000C0E90045540744BF0B89A0F854311307F5
:1034C00007D5097BB0F8583169B143F44073A0F8CF
:1034D000583190F89430042B08D8036F1A430267D0
:1034E000002003B030BD23F44073F0E701A9FEF7DC
:1034F000AFFEF5E770B5446C91F8223094F83221B4
:103500009A4218BF01220D461CBF84F8F42184F8AA
:10351000323183B1B4F830610B8C9E420BD0A4F8E9
:1035200030312046FFF72BF810B1A4F8306170BDA0
:10353000012384F8F43105F1100104F58870FFF7D8
:103540003AFE04F590702946FFF735FE0020EEE7BD
:1035500070B5446C054620460E4602F03DF8031E49
:1035600001DA18B270BD08D03268A2617268E261F7
:10357000012B02D02846FFF741F8237E402B09D9C2
:10358000638B202B06D1237F012B03D184F8F631E6
:103590000020E7E7002084F8F601E3E704292DE99D
:1035A000F843D0F8448006461746994634D16FF464
:1035B0000874D44014F001042ED1093B172B2BD8EA
:1035C00098F80830934207D198F80C304B4504D155
:1035D00000252846BDE8F88301244A46394640467E
:1035E00001F06AFF05460028F3D1336C1B69042201
:1035F0001A705F70336A994504D0C6F8209030463F
:10360000FEF7FCFF98F89430012BE1D9002CDFD0B5
:10361000404601F056FEDCE76FF00A05D9E70000EE
:1036200070B5466CBFF35B8F96F87231BFF35B8F5A
:103630000D46ABB1304601F00BFE286096F8943091
:10364000052B04460AD8B6F80E02074B074AA0FB22
:103650000301002324F082F820442860002001E0C8
:103660006FF0050070BD00BF8009EE0040420F0002
:1036700010B5044601F0ECFD236EC01A044B9842CD
:1036800004D92046BDE8104001F01BBE002010BD4B
:10369000C0CD170010B5044621B92046BDE8104042
:1036A000FFF77BB9FFF7B4FA0028F6D010BD08B5D4
:1036B00002F0FEFD002008BD13B5446C019203200A
:1036C00006F0E0FB0199204601F0FCFA04460320D5
:1036D00006F0D9FB204602B010BD2DE9F743446C3B
:1036E0001646994600220023CDE9002394F8303095
:1036F00005460F46052B39D8DFE803F0035403389D
:103700003854B4F93230033309D104F1420304F1DF
:10371000340204F12001204601F0BDFE6086B4F9B8
:10372000320000283BD1D4E90823CDE9002394F8E6
:103730004230D4F8348089F80030DDE90023204697
:1037400001F0ADFD94F84830DDE9002CA3B9E06448
:10375000E36C216E591A636E03EB0113190E1B0201
:10376000C4E91431022384F8483007E06846D4F8ED
:1037700034811CF081F9E0E7012BE9D0D4E914147D
:10378000511A6CEB040404F0FF03B1EB080263F17F
:103790000003C7E90023EB68C01A3060002003B0C3
:1037A000BDE8F0836FF01700F9E72DE9F041D0F89C
:1037B00044800C46002935D00B8EDA070AD501F17A
:1037C00032030A460831FFF788FF18B1238E23F031
:1037D00001032386404601F02AFA238EE0629B050E
:1037E00008D4238E23F47D4323F0FE032386002098
:1037F000BDE8F08198F8326104F12705002EC6F18A
:10380000040214BFFF210021A8190EF0E7FA0027D7
:10381000F9B28E42E5D94046FEF7EAFD013705F8D8
:10382000010BF5E76FF00A00E2E738B5446CBFF32F
:103830005B8F002584F87251BFF35B8F01F098FF16
:1038400084F8485084F895502046BDE83840FFF78A
:10385000A4B838B5446C0025C4F88C502046FEF757
:1038600019FD84F8955001F081FFBFF35B8F0123B0
:1038700084F87231BFF35B8F01F0FEFCC4E91601DE
:10388000204601F01EFD94F8703113B12046FFF779
:1038900084F82046FEF7C6FD002038BD024690F8A9
:1038A000700170B192F8953043B9B2F80E028142BE
:1038B00006D9081AC82898BF002070470020704712
:1038C0001846704773B5446C002384F8953084F82B
:1038D000483094F888319B070E46154602D520469D
:1038E000FEF76FFD2046FEF75BFD66B3002384F80C
:1038F0009130204601F0ACFC19491A4A281A0023DD
:1039000080FB010123F02AFF01902046FFF7B0FE63
:10391000154BC4F88C300623019984F8903020466A
:10392000FFF7BCFF019928B9204602B0BDE87040FE
:10393000FFF76EB920460191FFF7ACFE0199002810
:10394000F2D102B070BD94F8703113B12046FFF788
:1039500024F8204602B0BDE87040FFF763B900BF0D
:1039600040420F008009EE00AF36000010B59DF810
:1039700008402BB1402819D004D810280ED00023BD
:10398000184610BD7D2801D0FA28F8D1B4B9042911
:103990000CBF4FF418734FF49873F1E714B91AB9C8
:1039A0001B01EDE70029FBD05B00E9E714B91AB968
:1039B0009B01E5E70029FBD0DB00E1E70429FBD10F
:1039C000EEE730B58DB00C46154601938AB1128CE6
:1039D000ADF82C20084695F822208DF82E20FFF710
:1039E000BDFB019B024603A92046FEF7B9FE0DB0C0
:1039F00030BD0846FFF7B2FB019B02462946F3E7BC
:103A000030B58DB00C46154601938AB1128CADF8D5
:103A10002C20084695F822208DF82E20FFF79EFBDB
:103A2000019B024603A92046FEF73AFE0DB030BDC9
:103A30000846FFF793FB019B02462946F3E773B55F
:103A40006FF07F430E4614460546019305F0A8FC2F
:103A50000322314601A80EF0A5F940B121462846BF
:103A600005F0B0FC22884FF6FF739A4203D16FF045
:103A70000F0002B070BD0020FBE7000013B5044644
:103A80000DF1070005F074FC9DF80700B8B194F83B
:103A90009630B3B1204601F0DBFBA36E0A490B4A16
:103AA000C01AA0FB0101002323F058FE9DF8072057
:103AB0004FF47A73534383422CBF0020012002B09D
:103AC00010BDE06EE9E700BF40420F008009EE0044
:103AD0002DE9F041456C1446002A71D000296FD0C1
:103AE000EB6A9A074FD4AB6A002B6CD0DA6822B12C
:103AF00095F867610EB1023ADA600B60238E9B077E
:103B00000BD004F13203224604F10801FFF7E5FD72
:103B100018B1238E23F003032386EA6AD70742BF36
:103B2000238E43F480632386160742BF238E43F41B
:103B300000532386238ED80544BF0022E2619A05F4
:103B400023D4238E9B0605D51CF02EF94FF08063FD
:103B5000A0616361284601F06AF8E0622846FEF73A
:103B6000A5FB38B12846FFF789FF18B1238E43F42F
:103B700080532386238E23F4404323F01C032386A3
:103B80000020BDE8F0810023B7E795F8327104F119
:103B90002706002FC7F1040214BFFF210021F019EE
:103BA0000EF01CF94FF000085FFA88F1B942C8D254
:103BB0002846FEF71DFC08F1010806F8010BF3E7A3
:103BC0006FF00A00DDE76FF01000DAE738B51D4648
:103BD0000446049B072A24D8DFE802F004202010C2
:103BE00020202020012B426C1BD12B7892F86711EA
:103BF000994201D082F86731002011E0402B406CDF
:103C00000FD14FF0FF31FEF718FC48B905F108025B
:103C100029462046BDE83840FFF75ABF6FF0110033
:103C200038BD6FF00A00FBE710B5044601F010FB49
:103C300094F8A430032B34D8DFE803F02E02303E92
:103C4000D4F8A030C01A002836DA002394F8942063
:103C5000012A00D043B32046FEF7E4FF18BB94F8D6
:103C60009420012A20D10623C4F88C0084F89030D7
:103C7000002384F8953084F8483094F888319B0705
:103C800002D52046FEF79DFB2046FEF789FB002269
:103C900011462046FEF76EFC002004E094F87131D6
:103CA000D4E76FF00A0010BD002201212046FEF784
:103CB000E7FD1BF003FFDBE76FF00500F3E713B54B
:103CC000044601F055FD606CFFF7AEFF019001F076
:103CD0004DFD019802B010BD406CFFF7A5BF70B557
:103CE000002480F8914005460E46FEF7DFFA50B1F9
:103CF0003268B5F80E02D5F874311118994204D221
:103D00002846FEF7FFFA012009E0FA33984207D867
:103D100099420AD9CB1A0120336085F8910070BD11
:103D2000FA2A02D9FA3A3260EDE72046F7E70000B6
:103D30002DE9F7430023466F019304460D4689B1F0
:103D400001F086FA281A05D5204601F0BAFA6FF07C
:103D500017004CE04E494F4A002380FB010123F03D
:103D6000FDFC019094F89430002B00F08C80052B22
:103D700004D894F89030062B40F0858094F8883170
:103D80009B0702D52046FEF71CFB94F87A31032BE3
:103D900001D0636F3BB9D4F87421019B9A4202D8D9
:103DA0002046FEF7FDFA0DF1030005F0E7FA636F18
:103DB00003B394F89450012D45D0032D66D04FF4F1
:103DC000FA7296FBF2F302FB136313B92046FFF776
:103DD0004FFC01992046FFF761FD019000284ED06D
:103DE00001A92046FFF77BFF002848D0019803B0C7
:103DF000BDE8F0839DF80330002BDAD02046FEF7B3
:103E000055FA0028D5D094F8A430013B012BD0D925
:103E1000D4F874319DF803504FF47A7202FB0535E3
:103E2000FDF798FAD4E96023019FC01941F1000120
:103E300012EB050843F10009404571EB0901B8DABE
:103E40001343B6D083E701992046FFF727FD019081
:103E500038B92046FEF7E6FE2046FEF71BFA0020A2
:103E6000C5E701A92046FFF73AFF0028F1D00199E4
:103E70002046FEF7CDFE0028EBD12846B7E72046C6
:103E8000FEF7D0FEEBE76FF00B00B0E70120AEE7E6
:103E900040420F008009EE0038B505460C4690F808
:103EA0003201E9B910B1012385F8F431002385F816
:103EB00032312B7DA34203D02C7520461BF0D4FC5D
:103EC0009CB1687D1CF0FAF805F588701BF004FDC4
:103ED00005F590701BF010FDBDE838401BF0ECBC00
:103EE000013841EA0014E4B2E3E738BD002070472E
:103EF00038B5456C0C46D9B195F8973033B10B887D
:103F000043F001030B80002385F897302846FEF725
:103F1000CDF938B12846FFF7B1FD18B1238843F039
:103F200002032380238803F003032380002038BD8D
:103F30006FF00A00FBE700002DE9F04F2DED028B3A
:103F40009BB01E46037A06930446002390F8660150
:103F50008DF82C300D460BA908EE102A05F002FC56
:103F60000746002840F0D380337803937C2B94BF1E
:103F7000002301230793694BB6F802C003F1300E0A
:103F80000EAE18685968324603C2083373451646A8
:103F9000F7D100230EAA32F82310614540F08C803F
:103FA0001AAA02EB830313F82E3C0593637C089353
:103FB00094F83291A37B08EE903AB9F1000F00F02B
:103FC0008180B4F830310493002D7ED094F80FA096
:103FD00094F8F4311BB9D4F8F0319D425BD0002342
:103FE00084F8F431C4F8F05184F864319B46984663
:103FF0005FFA88F60DAA0EA93046FFF720FD0028CB
:104000006DD19DF83820D10769D418EE900A0DF1D2
:104010002E0101F023FC002877D10CA9504601F0B5
:1040200036FC002871D19DF83820079B02F0010270
:104030009A4254D1039B7C2B06D89DF83920089BCB
:10404000C2F300129A4258D19DF83820059BB3EB79
:10405000121F4AD19DF82E10C2F342028A4244D167
:104060009DF83A00FFF732F8049B98423DD19DF845
:1040700039209DF8301002F00F00884235D1B9EB9D
:10408000521F25D1BDF83420954221D1012384F857
:10409000643184F850619DF92C30002B40DA04F52E
:1040A000AE7005F0CFF904F2611005F0D3F904F514
:1040B000B07005F0D7F92AE001330C2B7FF46BAF19
:1040C000002372E7CDF810907EE74FF0020A7FE7F9
:1040D000BBF1060F03D084F850614FF0060B08F1D6
:1040E0000108B8F1080F83D1D5E7BBF1010FF6D86D
:1040F00084F850614FF0020BF1E7BBF1000FEED1F5
:1041000084F850614FF0010BE9E76FF00207384681
:104110001BB0BDEC028BBDE8F08F00BF3E7F0200FC
:10412000069B94F85021B3F1050818BF4FF0010821
:104130000EAB18EE100A414605F0A4F90E9B1E685E
:1041400094F864310C96002B40F061819DF82C307E
:1041500003939A0700F05B8194F850010DF12E0251
:104160000DA9FFF76CFC07460028D0D1A07B0DF10C
:104170002D0101F073FB07460028C8D194F8189070
:104180009DF82D20A17E4846FEF7CAFF9DF83420F9
:10419000B34B049012F0010F14BF4FF07D0A4FF0A3
:1041A000400A4FEA121C0DF1380E03F1180B186883
:1041B0005968774603C708335B45BE46F7D11AAB4B
:1041C00003EB4C0CC2F342021CF8301C5046FEF7C5
:1041D000A7FF94F83221B4F830310590002A00F09E
:1041E0002B815343B9F17C0F8CBF4FEAC3194FEABF
:1041F00083199DF835B09DF834309DF836005FEA9C
:104200005B1B03F0010308D0FEF760FF0BFB00FB14
:10421000002B00F013814FEACB1BE07B0EA901F0CD
:1042200036FB074600287FF472AF237DA27F9DF8FE
:104230003810009003F00B03032B14BF132300234B
:10424000207EFFF793FB9DF835109DF834300690E3
:1042500013F0010F01F00F0314BF7D204020022B4B
:10426000C1F30012009714BF1323002301F00F01C4
:10427000FFF77CFB0EA90790E07BBDF82EA001F0B4
:1042800006FB074600287FF442AF207E9DF83810D9
:10429000002D00F0D680ED0040F28D136B4303F546
:1042A000FF3335335B0C03EB4303023505EB03159A
:1042B000ABB2012200920022FFF758FB9DF8343088
:1042C0009DF83510089013F0010F14BF7D20402099
:1042D00001F00F01BAF1000F11D04FEACA0A40F203
:1042E0008D1303FB0AF303F5FF3335335B0C0AF13F
:1042F000020A03EB43030AEB03131FFA83FA0123B9
:10430000009300225346FFF731FBC6F307218A1BB7
:10431000C6F307476FF0270C52B2CF1B62457FB23E
:10432000A1EB1666B8BF624676B26745B8BF67466E
:104330006645B8BF6646282AA8BF282245F20B5515
:10434000099005FB02F004F0A1FB282FA8BF282745
:10435000824605FB07F004F099FB282EA8BF28260B
:10436000074605FB06F004F091FB089D049B4543BE
:1043700009FB0A5909EB0329099BBDF8185058435A
:10438000059B0BFB0A0BBDF81C000BEB032B07FB7B
:1043900000B004F06DFB07FB05990546484604F0A4
:1043A00067FB281AA425454345F307357DB3039BD6
:1043B000DB072CD5217A94F8502105390EAB18BFB4
:1043C000012118EE100A05F079F80E9B1B680D9379
:1043D0000DA80CA904222EB2FF274FF0000C10F8F4
:1043E000013B13F0800F2ED19D422CDD0FFA83FE8E
:1043F0000B78A3EB0E031FFA83FE002B25DA81F85E
:1044000000C0013A12F0FF0201F10101E7D118EEFC
:10441000100A0EAA414605F099F8E8B900909DF9F6
:1044200038200C99207A04F5AE7301F08BF8071E42
:1044300018BF6FF002076AE69146DAE64FEA8B1B77
:10444000EBE62B4635E7B646D2E7B3F5807FB4BF3F
:1044500073463B460B70D4E76FF00A0757E600BF80
:104460006E7F0200F7B5002301930B68446C0E4683
:104470001546002B5DD01846FEF770FEB368B7896D
:10448000184494F848301BB90123E06484F848309C
:10449000E36CC01A030D0003C5E9000396F90E2072
:1044A00084F86621716801AB4968204600F0A4FBDE
:1044B000F37B9BB394F966110DF10202204601F0E3
:1044C0006CFBA0BBB38923B194F867310BB1023701
:1044D000BFB233689DF8022039462046FFF72CFD15
:1044E00028BB012384F8F731204601F0F5F9A8B183
:1044F00094F8613193B98DF80330736894F86601CC
:104500005968053918BF01210DF1030205F008F8BB
:1045100068B9019B9DF9032013440193D5E9002359
:104520000199521843F10003C5E90023002003B0AC
:10453000F0BDC068A2E700002DE9F04F9A468FB0A9
:10454000137B446C049303F06003202B94F808B0B1
:1045500005900F46164607D0602B03D121B16FF0AE
:104560000A051DE00029FAD0049B13F001031FBFC8
:10457000059A3368D2689B181BBF0A930123CDE9C3
:104580000A330B93BAF1000F01D184F895A00A9970
:10459000C4F874A02046FFF7CBFB051E04DA2DB249
:1045A00028460FB0BDE8F08F1ED00A9A01212046A0
:1045B000FDF7E0FFAE4BC4F88C30072384F8903051
:1045C00096E80F0004F17C0C012D8CE80F00A76722
:1045D00001D10025E4E729462046FFF75BF80028D3
:1045E000F7D02046FEF71EFB012005F04BFC96F9A4
:1045F0000D3084F86631317B2046C1F34111FFF75D
:104600004BFC7368002B20DDD4F89C3033B10021C3
:1046100008461BF06BFB0023C4F89C307368B1683C
:10462000002BB8BF0F331B11103B23EAE37919B9F4
:10463000D4F86C3103930CE04A1C62D02046D4F8C5
:104640006C5100F063FE2B18F4E7002303934FF046
:10465000FF39002F57D094F86731B7F80C801BB1A1
:1046600008F102081FFA88F894F966110DF1260284
:10467000204601F092FA0546002891D194F8F731CE
:10468000002B42D0204600F0CCFA0546002887D106
:10469000BBF105019DF826B00C90D4F85C31CDF843
:1046A000330018BF01210DF127025846CDF83130F3
:1046B000069104F061FF054600287FF471AF9DF874
:1046C00027000699002800F0A28094F80A3283425D
:1046D00027D094F80C32834200F091801BF0FEFB4F
:1046E00094F80A328DF83000002B40F08A802B4677
:1046F00004EB43039DF8272083F80A2283F80B027A
:1047000017E0002396E7B846AEE79DF8262004F1AF
:10471000180341462046FFF70FFC05460028B1D09C
:104720003EE72B4603F5827304EB4303DB788DF8F9
:1047300030300CA81BF0B6F894F860011BF0AAFC0E
:10474000204600F085FDCDF800A0834603460AAA66
:104750000BA92046FDF7E8FD5A4606900A99012369
:104760002046FDF735FEDDE90AAB0790B8F1000FF2
:1047700055D1049B0021C3F3800240461BF004F98D
:10478000BBF1000F09D0206EAAEB000A606E00EBAF
:104790000A101BF031F94FF0010BB9F1000F08DDE1
:1047A00048461BF0B7FABDF80C004BF0020B1BF0AB
:1047B000AFF9039BC4F8E8314FEA0912C4F8E421C9
:1047C0005FFA8BF01BF004F9002831D1059A4346BB
:1047D000D26804F5887104F11800FDF761FF032128
:1047E00002462046FEF74CF80A9A01212046FDF7C2
:1047F000C1FE337BC3F3C00384F89530D0E60123B8
:1048000090E794F80C32002B93D1012370E70CAAA7
:10481000584604F0C7FE00288BD00546C0E6002F9E
:10482000A7D0B968B88900221BF09EF80028A0D054
:10483000204600F046FD94F888319B0708D4069B7B
:104840008BB10021204600F024FE6FF01705A7E68B
:10485000079B23B10021204600F01CFEEFE7204615
:10486000FDF7AFFDEBE72046FDF79AFDEDE700BF52
:104870007548000007B5416C91F8943081F890308C
:10488000002300934B6F01F17C02896FFFF754FE08
:1048900003B05DF804FB00002DE9F04F0F7B446C82
:1048A00017F0010718BF0B6885B00D4692461ABF76
:1048B000A3F5807B0127BB460AB984F89520C4F88C
:1048C00074A059462046FFF733FA061E04DA36B2C2
:1048D000304605B0BDE8F08F1DD05A460221204673
:1048E000FDF748FE7D4BC4F88C30082384F89030E7
:1048F00095E80F0004F17C0C012E8CE80F0001D12B
:104900000026E5E731462046FEF7C4FE0028F7D032
:104910002046FEF787F9022005F0B4FA95F90D302C
:1049200084F866312B7BC3F3001384F8F531002340
:10493000C4E90A33C4E97F334FF6FD7262864FF053
:10494000FF32C4F83A20C4F83E20A4F8FA31C4F883
:104950000432A4F80832297B2046C1F34111FFF745
:104960009BFA204600F060F90646002840F0B3802C
:1049700095F80C80D4F89C3008F00208984504D0D3
:1049800041461BF0B3F9C4F89C80D5E90198CDE904
:10499000027BB9F1000F15D1D4F86C71AFB1B8F149
:1049A000000F78D0D4F86801784348BF00F2FF10B8
:1049B000B8F1000F4FEA6020B8BF08F10F0800EB14
:1049C000281004E0B9F1FF3F5DD1002738461BF005
:1049D0008FF8204600F03CFCCDF800A0034683464B
:1049E00003AA02A92046FDF79FFC039980460023F5
:1049F0005A462046FDF7ECFCB7F5803F824612D3BD
:104A0000204600F025FC039B354A4B44A3EB0009EC
:104A100034480023A9FB000122F0A0FE01462046F5
:104A2000FEF7F6F80027B8B21BF072F8029840B112
:104A3000236E0398C01A636E03EB00101AF0DCFFBC
:104A400001201BF04BF8814678B394F888319B071E
:104A500006D5BAF1000F20D00021204600F01AFD43
:104A6000B8F1000F1DD00021204600F012FD2046B5
:104A7000FEF7D8F80FFA89F018B3204600F021FCB1
:104A80006FF0170624E749462046D4F86C7100F011
:104A90003DFC074482E7404699E72046FDF791FC3C
:104AA000DEE72046FDF77CFCE1E7039AC4F8E871F5
:104AB00002212046FDF7E4FE039A02212046FDF77D
:104AC00059FD287BC0091BF0ABFB2B7BC3F3C00354
:104AD00084F89530FCE66FF00206F9E6E94A00003A
:104AE0008009EE0040420F00416C91F8943081F84B
:104AF00090304A6F00237C31FFF7CEBE73B5CEB243
:104B00003046D11C144604F015FE054670B9E37812
:104B10007BB101A9304604F0F7FD211D304604F0B9
:104B200015FE019B1A8822809B78A370284602B04C
:104B300070BD6FF00F05F9E773B5CEB2304601A92D
:104B4000154604F0A1FD044660B92946304604F03C
:104B50008FFD2B78032B1DBF019B1B88A5F801300F
:104B60006FF00F04204602B070BD70B5CDB228467C
:104B7000511C144604F03CFD064670B963780F2BB7
:104B80000DD02146284604F023FDE11C284604F000
:104B90004FFDA11C284604F03BFD304670BD6FF070
:104BA0000F06FAE72DE9FF41144649B26A460A9D0D
:104BB00007461E46FFF7C0FFD8B99DF9018022467F
:104BC00041463846FFF7D1FF98B986F80080A278B1
:104BD0002B789DF9028013432B70221D41463846E5
:104BE000FFF7C3FF28B986F801802B78A279134319
:104BF0002B7004B0BDE8F08173B50D4611460DF180
:104C000007021E4600F0C9FF044638B9691F9DF827
:104C10000700324618BF012104F06CFC204602B0A8
:104C200070BD002100F076BE012100F073BEF7B523
:104C3000002390F83A20ADF804308DF8063002AB2E
:104C40001A44012302F8043C90F83B20FF2A1BBFC2
:104C500002A952181D4602F8043C18BF022504465A
:104C600000F1060C0023012694F83C1194F83D2134
:104C70000139C9B2092920D8013AD2B2092A1CD86F
:104C800002AF0F4417F804ECBEF1000F06D107F88D
:104C9000046CC718013387F83C10DBB202A9114439
:104CA00011F8047C37B901F8046CC118013381F89C
:104CB0003C20DBB20234A445D6D15819C0B203B0AF
:104CC000F0BD00002DE9F04F00230B608B6A13F05C
:104CD000280F91B004460E463DD0CA69002A3ADD3D
:104CE000082A04DD6FF00A0011B0BDE8F08F9A06C3
:104CF00002D54A6A002AF5D013F008030AD0336AB5
:104D0000002BEFD00CA804F085FB9DF930306FF03C
:104D10005602D31AE56A029315F0040504F13A0726
:104D200012D1DFF80893B84618F8011BFF2904D008
:104D300005EB451048441BF04FFA0135082DF3D11F
:104D4000E36A43F00403E3624FF000080397C246AE
:104D5000F369984509DBB36AD90600F14781B36A64
:104D600003F07B03B3620020BEE7039B13F8015BF3
:104D70000393FF2D00F08C80B26A170731D512F033
:104D8000400F08BFA949D6F820904FEA4A1004BF47
:104D900000EB0A025218C8EBC80309EB43070CBF2B
:104DA000D28A0022FA80A14A50441044828A920199
:104DB0007A81028B91B2002975D129F81320BA802B
:104DC0003A810523B5FBF3F303EB8303EB1ADBB264
:104DD00043F008023A73D4F8C02002B13B73029B3F
:104DE0007B80B26A90064FD5D6F824C008EB480EF7
:104DF0001CEB8E0702F0400200F0F580B868002836
:104E000000F0F180B979032940F2ED800523B5FB6C
:104E1000F3F303EB8303EB1A43F008030CF82E3093
:104E2000002A40F0A6802B1E18BF01237F4A4FEABC
:104E3000C33C0AEB4A131344DB8A23EA0C039B09A5
:104E40007A88B7F804C01A4412B2002A80F2A0800F
:104E50005B427B80002D40F0F2812A469444BCF5F1
:104E6000806F02DDC2F58063BB800729BB8892B2E8
:104E700040F2A9800021009129461AF06BFF00281A
:104E800040F0B1800823BB7108F101085FFA88F88F
:104E90000AF1010ABAF1080F7FF45AAFF369984595
:104EA000BFF659AF1EE794F9F8B1002D2DD1B4F833
:104EB000FA21002A34D029F813202A46B4F8021225
:104EC000002945D0B980E2B1BBF1000F13D039F809
:104ED00013204FEA4B1B5A451FFA8BF1C6BF521ADB
:104EE00092B2002229F81320BA889345B5BF511A0F
:104EF0000022B980BA8039F81310BA887DB3012D29
:104F000032D039F813303B815BE7012D08D1B4F87A
:104F1000FE212AB129F813200022B4F80612CFE7A7
:104F20000CAA29460593049000F07CFCBDF93020C2
:104F3000DDE90403002ABABF524292B2002229F8E6
:104F400013200DB90122B9E7012D01D12A46E4E76A
:104F50003A1D2946049300F06EFC049BB4E7A4F8C4
:104F6000FA11A4F80222CCE7A4F8FE11A4F8062254
:104F7000C7E755B994F80CC040F2162340F2EE2270
:104F8000BCF1180F98BF13465AE740F26D1357E76C
:104F900075B1B2F5007F03DB40F2FF12D31A7B80BC
:104FA0009444BCF5007F7FF760AFC2F500735BE708
:104FB000B2F5806FFFF652AFC3F57F7303337B808A
:104FC00040F2FF324AE7052905D929461AF0D8FEF2
:104FD00048B9062357E70121009129461AF0BAFE85
:104FE00008B904234FE7C6F81C807BE6204600F092
:104FF00009FC00283FF4B3AE94F9661108AA2046D4
:10500000FFF77CFD10F1100F054600F01681002817
:105010007FF46AAE9DF8247037B19DF82370B046D6
:10502000A246EBB29F4203D8376098E6AC19002045
:1050300008AB0CAA15F903B020465946FFF77CFDD2
:1050400000287FF451AE237A9DF830900393591FC6
:105050005FFA8BFB18BF012106AA5846029104F0A3
:105060001DFB00287FF440AE02990AAA584604F0BE
:1050700039FB02990DF11A02584604F021FB9DF903
:105080002800002880F28980039B6E4A052B6E4B16
:1050900008BF134607939AF83C310522013B93FB66
:1050A000F2F202EB82029B1A013B1A06D9B27CD4BF
:1050B0002046FDF79DF983469AF83D310522013BD4
:1050C00093FBF2F202EB82029B1A013BD9B21B0660
:1050D00008D42046FDF78CF9584569D3BBF1000F81
:1050E00008BF83465846FDF775F9BDF9183088F8B2
:1050F0000A0029460AA80293BDF91AB01AF08CFCDE
:10510000BDF92A20029B12F4005F1CBF6FEA8242A5
:105110006FEA9242D31A1BB243F2442193FBF1F29D
:1051200001FB1232494B9A4244DA8B181BB2BBF195
:10513000000F11D0A3EB0B0303F59643663343F244
:105140004421ABF5C95BABF1020B93FBF1F201FB20
:1051500012339B440FFA8BF3BDF928200292079A71
:10516000B2F9001099422EDDB2F90210029AA8F8A5
:105170000420B9F1010FA8F80630A8F8081004D0EF
:10518000B9F1020F18BF4FF0000988F80B900135F4
:1051900008F108080AF1020A43E707A9C0B204F0BF
:1051A00041F900283FF477AF9EE54FF0000B83E70D
:1051B000834697E741F622118A4213B2B7DDA2F582
:1051C0004953043BB2E7B2F9781099422FDCB2F9A7
:1051D0007A10CBE700EB0C0101EBD171491032F9E9
:1051E00021E09E4527DC01F1010C6045F2D14FEA38
:1051F000800BABF1040B02EB800102EB0B0C498836
:10520000BCF802E032F92000A1EB0E0E0FFA8EFE80
:10521000A3EB000C0CFB0EFC32F80BE0A0EB0E0035
:105220000FFA80FE9CFBFEFC614409B29EE71E2043
:105230004FF0000CD9E70846D7E70027F4E6002234
:10524000AEE600BF34800200B0800200DEE6FFFF61
:1052500010B50446FBF74AFCD4E91623801A4FF038
:105260009C0261EB0303A0FB020102FB03110A2273
:10527000002322F023FA10BDFBF738BC10B5D0E9AB
:105280001843C3EB0413194422EA1110400002F042
:10529000704242EA111200F08050104410BD70B507
:1052A000054614461E46FFF7D3FF240AA0F56E02FA
:1052B00044EA06612846A2F51862BDE87040FFF78F
:1052C000DDBF13B5044600F164016846FBF710FC2E
:1052D000D4E916210098019B801A4FF09C0263EBE1
:1052E0000103A0FB020102FB03110A22002322F0AA
:1052F000E5F994F848302066022B08BF01234FF0EF
:10530000000008BF84F8483002B010BDD0F8680132
:1053100000EB4111013991FBF0F07047D0F86821A2
:10532000084610F1FF334FEAE17141F1FF31F0B56A
:105330005143D71703FB0711A2FB03230B44541C53
:1053400043F10005002C75F1000103DA12F120048D
:1053500043F10005600940EAC560F0BD70B5D0F8C2
:105360008C61044600F10805C0201AF053FA0028A9
:1053700042D128461AF08CFA054600283FD11AF08F
:10538000C9FC28461AF0B4FBB4F85811B4F8560119
:105390001AF084FCB4F854011AF01EFCB4F852015F
:1053A0001AF02EFC20461AF03FFC28461AF05AFD4F
:1053B00094F80421D4E93F011AF0FEFB01201AF011
:1053C00003FE01201AF004FD01201AF025FD292119
:1053D00040F601101AF0B0FB01201AF025FA0FF088
:1053E00013FE1AF0E5F940F201233060A4F83C31D5
:1053F00084F83E51284670BD6FF00B00FBE76FF05C
:105400001800F8E7014B1868FDF7E1B8B41A00205E
:1054100008B5FBF799FC0FF013FE002008BD37B567
:10542000D0F88C5104460FF0B5FE1AF009FF0FF0CA
:10543000EBFD1AF041FA2B79002B14BF032000205A
:105440001AF002FA10BB1AF093FD1AF081FD0FF06A
:105450008FFE0DF1060003F0D5FF9DF80630FF2BFF
:1054600004BF94F865318DF806309DF806001AF0F7
:105470000DFD0DF1070003F08DFF9DF807001AF0F8
:10548000B7FD2046FDF798FB03B030BD6FF00B0071
:10549000FAE77047704710B50C463AB1017A90F8B8
:1054A0006601053918BF012104F024F82046FF21C8
:1054B0001AF0D8FA002010BD70B5037AD0F88C51DC
:1054C0008B42044607D1037B934204D1437B934232
:1054D00001D1002070BD217222736273BFF35B8F14
:1054E00094F87231BFF35B8F002BF2D094F8946084
:1054F000012E08D004F108001AF0CAF90028E8D0FB
:105500006FF01800E6E700232B712046FCF7C2FE7F
:105510002E710028EED0DDE7094B07B5014618686B
:1055200029B1002203B05DF804EB0FF0D3BC019168
:105530000FF01EFD0199084603B05DF804FB00BFA3
:10554000B81A00201FB509BA009102AA69461C4684
:105550001AF062FD10B100B204B010BD029B2360CE
:105560009DF80C302371F7E770B54488049E079DC1
:10557000B4F5807F0FD008D8402C0CD0802C0AD0F6
:10558000202C0AD06FF00A0070BDB4F5806F02D0F5
:10559000B4F5805FF6D10C8002E00C800321297005
:1055A000017911B10229EDD103211170427912B1B3
:1055B000062AE7D101223270059A81791170297883
:1055C000428803290CBF042108210932521A1A808B
:1055D000069B00201870D7E770B588B000238DF8BF
:1055E0001B3090F89430012B04460D4606D06B8892
:1055F000B3F5805F08D16FF00A0003E0FCF74AFEC4
:105600000028F4D008B070BD29460020FCF750FFF8
:105610000028F7D10DF11B0303930DF11A03029338
:105620000DF11903019306AB00930DF117020DF173
:105630001E0307A92846FFF797FF0028E2D1A27BA7
:105640009DF817309A4210D0BFF35B8F94F87231F7
:10565000BFF35B8F1BB19DF817001AF065FC9DF836
:105660001730A373012084F8F401627C9DF819308F
:105670009A42054604D1227C9DF81A309A4273D092
:10568000BFF35B8F94F87231BFF35B8F2BB19DF842
:1056900019109DF81A001AF025FD9DF81930637451
:1056A00001209DF81A30237484F8F4010646E27B49
:1056B0009DF818309A4211D0BFF35B8F94F8723185
:1056C000BFF35B8F1BB19DF818001AF021FD01207C
:1056D0009DF81830E37384F8F4010646E27A9DF8E9
:1056E0001B309A420ED0BFF35B8F94F87231BFF338
:1056F0005B8F1BB19DF81B001AF01EFD9DF81B303F
:10570000E3720125B4F80920BDF81C309A4212D08A
:10571000BFF35B8F94F87231BFF35B8F1BB1BDF8A1
:105720001C001AF041F90120BDF81C30A4F8093022
:1057300084F8F4010546628ABDF81E309A420ED004
:10574000BFF35B8F94F87231BFF35B8F1BB1BDF871
:105750001E001AF005FDBDF81E3063820126002DE3
:105760000CBF304602204DE70026A0E70FF000BD39
:105770000FF010BD194B37B5C0F88C31184B0546EA
:1057800018600FF007FD2846FFF7E8FD0446F0B962
:1057900005F1C8001AF0F4F920461AF0D1F82046B5
:1057A0001AF0BAF801A80FF0C5FD0FF0C9FD2346A5
:1057B0000C4A01990FF034FB0B4B186050B10B4BA6
:1057C000C5F808310FF0D4FC012385F8703120466C
:1057D00003B030BD6FF00B04F9E700BF6401002097
:1057E000B41A002005540000B81A0020BC1A00208A
:1057F000014B1868704700BFB41A00206FF0110009
:1058000070470000D0F88C311868054B984204D0DE
:105810000233C31A5842584170470120704700BFF5
:105820001203CADE10B514461AF0AEFC013004BFF4
:105830000023238010BD13B514460DF106021AF0A3
:10584000B7FC013008D0BDF90630002B04DC5B4208
:105850009BB2238002B010BD0023FAE7102813D8B2
:10586000DFE800F0090C100C121212120C121212C6
:1058700012121212100000200870704702230B70E1
:10588000002070470323FAE76FF00A0070470128F1
:1058900004D0022802D020B9087070470870002098
:1058A00070476FF00A007047D0F88C311B6810B554
:1058B0008B600C4619F068FFC4E9000119F052FF33
:1058C000E060002010BD08B51AF0C8FB431C0CBFF7
:1058D0006FF00A00002008BD0020704713B5044691
:1058E0000DF1070003F0C6FD9DF80730FF2B0FD028
:1058F000DB08012B28BF012394F83221002A08BFBE
:10590000002384F83A30FF2384F83B3002B010BD06
:105910000123F1E72DE9F04F89B04FF0000990F82D
:10592000487190F816808DF80A9005460E460029B9
:1059300000F0E98090F9661104AAFFF7DFF8044649
:105940008246002840F0D9809DF814602846002E39
:1059500066D1FFF757FF9DF910B0814606AA594658
:105960002846FFF702F90446002840F0BE809DF863
:105970001830012B40F00E819DF819A0BAF1010FEB
:1059800007D0B9F1000F00F00581BAF1020F40F025
:1059900001819DF81A308DF80A309DF81B30002BDC
:1059A0003BD047F00107FFB24FF00008A5F83C815B
:1059B0005FFA8BF6002211462846FFF78FFF297AFF
:1059C000053905F59A7218BF0121304603F092FDA2
:1059D0000446002840F08D8095F84F31534504D09F
:1059E00050461AF091FA85F84FA195F84831BB421C
:1059F0000AD0384619F0FEFEBB074CBF002001203C
:105A000019F0E8FE85F84871AB7D434571D085F803
:105A1000168040461AF0F4FB6BE027F00107C3E75D
:105A2000FFF7F0FE002800F0B5809DF81330012B41
:105A300000F2B0800DF10A0300939DF810108DF86C
:105A40000A4003AB06AA2846FFF7ACF80446002834
:105A50004AD19DF81830012B40F09C809DF81930F8
:105A60005A1E012A00F296809DF81C20012A40F05F
:105A700091809DF81D20511E012900F28B809342D8
:105A800000F085809DF81B2012B99DF81F20AAB157
:105A900047F00107FFB2012B95F832319DF80C60F9
:105AA0000CBF4FF0030A4FF0040A53B995F8F531D3
:105AB000002B6CD1A5F83C3198467BE727F0010715
:105AC000E9E76A7D0E2A4FF002039CBF4FF0010800
:105AD0009DF80D6085F83D3186BF85F83C314FF06B
